{"abi":[{"type":"constructor","inputs":[],"stateMutability":"nonpayable"},{"type":"function","name":"CLOSED_MOUTH_THRESHOLD","inputs":[],"outputs":[{"name":"","type":"uint256","internalType":"uint256"}],"stateMutability":"view"},{"type":"function","name":"GAME_ENTRY_FEE","inputs":[],"outputs":[{"name":"","type":"uint256","internalType":"uint256"}],"stateMutability":"view"},{"type":"function","name":"OPEN_MOUTH_THRESHOLD","inputs":[],"outputs":[{"name":"","type":"uint256","internalType":"uint256"}],"stateMutability":"view"},{"type":"function","name":"UPGRADE_INTERFACE_VERSION","inputs":[],"outputs":[{"name":"","type":"string","internalType":"string"}],"stateMutability":"view"},{"type":"function","name":"approve","inputs":[{"name":"to","type":"address","internalType":"address"},{"name":"tokenId","type":"uint256","internalType":"uint256"}],"outputs":[],"stateMutability":"nonpayable"},{"type":"function","name":"balanceOf","inputs":[{"name":"owner","type":"address","internalType":"address"}],"outputs":[{"name":"","type":"uint256","internalType":"uint256"}],"stateMutability":"view"},{"type":"function","name":"canMintClosedMouth","inputs":[{"name":"player","type":"address","internalType":"address"}],"outputs":[{"name":"","type":"bool","internalType":"bool"}],"stateMutability":"view"},{"type":"function","name":"canMintOpenMouth","inputs":[{"name":"player","type":"address","internalType":"address"}],"outputs":[{"name":"","type":"bool","internalType":"bool"}],"stateMutability":"view"},{"type":"function","name":"closedMouthBaseURI","inputs":[],"outputs":[{"name":"","type":"string","internalType":"string"}],"stateMutability":"view"},{"type":"function","name":"getApproved","inputs":[{"name":"tokenId","type":"uint256","internalType":"uint256"}],"outputs":[{"name":"","type":"address","internalType":"address"}],"stateMutability":"view"},{"type":"function","name":"getPlayerStatus","inputs":[{"name":"player","type":"address","internalType":"address"}],"outputs":[{"name":"paid","type":"bool","internalType":"bool"},{"name":"highestScore","type":"uint256","internalType":"uint256"},{"name":"mintedClosed","type":"bool","internalType":"bool"},{"name":"mintedOpen","type":"bool","internalType":"bool"},{"name":"canMintClosed","type":"bool","internalType":"bool"},{"name":"canMintOpen","type":"bool","internalType":"bool"}],"stateMutability":"view"},{"type":"function","name":"hasMintedNFT","inputs":[{"name":"","type":"address","internalType":"address"},{"name":"","type":"uint8","internalType":"enum MouthGameNFT.NFTType"}],"outputs":[{"name":"","type":"bool","internalType":"bool"}],"stateMutability":"view"},{"type":"function","name":"hasPaidToPlay","inputs":[{"name":"","type":"address","internalType":"address"}],"outputs":[{"name":"","type":"bool","internalType":"bool"}],"stateMutability":"view"},{"type":"function","name":"initialize","inputs":[{"name":"_name","type":"string","internalType":"string"},{"name":"_symbol","type":"string","internalType":"string"},{"name":"_closedMouthBaseURI","type":"string","internalType":"string"},{"name":"_openMouthBaseURI","type":"string","internalType":"string"}],"outputs":[],"stateMutability":"nonpayable"},{"type":"function","name":"isApprovedForAll","inputs":[{"name":"owner","type":"address","internalType":"address"},{"name":"operator","type":"address","internalType":"address"}],"outputs":[{"name":"","type":"bool","internalType":"bool"}],"stateMutability":"view"},{"type":"function","name":"mintClosedMouthNFT","inputs":[],"outputs":[],"stateMutability":"nonpayable"},{"type":"function","name":"mintOpenMouthNFT","inputs":[],"outputs":[],"stateMutability":"nonpayable"},{"type":"function","name":"name","inputs":[],"outputs":[{"name":"","type":"string","internalType":"string"}],"stateMutability":"view"},{"type":"function","name":"openMouthBaseURI","inputs":[],"outputs":[{"name":"","type":"string","internalType":"string"}],"stateMutability":"view"},{"type":"function","name":"owner","inputs":[],"outputs":[{"name":"","type":"address","internalType":"address"}],"stateMutability":"view"},{"type":"function","name":"ownerOf","inputs":[{"name":"tokenId","type":"uint256","internalType":"uint256"}],"outputs":[{"name":"","type":"address","internalType":"address"}],"stateMutability":"view"},{"type":"function","name":"pause","inputs":[],"outputs":[],"stateMutability":"nonpayable"},{"type":"function","name":"paused","inputs":[],"outputs":[{"name":"","type":"bool","internalType":"bool"}],"stateMutability":"view"},{"type":"function","name":"payToPlay","inputs":[],"outputs":[],"stateMutability":"payable"},{"type":"function","name":"playerHighestScores","inputs":[{"name":"","type":"address","internalType":"address"}],"outputs":[{"name":"","type":"uint256","internalType":"uint256"}],"stateMutability":"view"},{"type":"function","name":"proxiableUUID","inputs":[],"outputs":[{"name":"","type":"bytes32","internalType":"bytes32"}],"stateMutability":"view"},{"type":"function","name":"recordScore","inputs":[{"name":"score","type":"uint256","internalType":"uint256"}],"outputs":[],"stateMutability":"nonpayable"},{"type":"function","name":"recordScoreForPlayer","inputs":[{"name":"player","type":"address","internalType":"address"},{"name":"score","type":"uint256","internalType":"uint256"}],"outputs":[],"stateMutability":"nonpayable"},{"type":"function","name":"renounceOwnership","inputs":[],"outputs":[],"stateMutability":"nonpayable"},{"type":"function","name":"resetPlayerPayment","inputs":[{"name":"player","type":"address","internalType":"address"}],"outputs":[],"stateMutability":"nonpayable"},{"type":"function","name":"safeTransferFrom","inputs":[{"name":"from","type":"address","internalType":"address"},{"name":"to","type":"address","internalType":"address"},{"name":"tokenId","type":"uint256","internalType":"uint256"}],"outputs":[],"stateMutability":"nonpayable"},{"type":"function","name":"safeTransferFrom","inputs":[{"name":"from","type":"address","internalType":"address"},{"name":"to","type":"address","internalType":"address"},{"name":"tokenId","type":"uint256","internalType":"uint256"},{"name":"data","type":"bytes","internalType":"bytes"}],"outputs":[],"stateMutability":"nonpayable"},{"type":"function","name":"setApprovalForAll","inputs":[{"name":"operator","type":"address","internalType":"address"},{"name":"approved","type":"bool","internalType":"bool"}],"outputs":[],"stateMutability":"nonpayable"},{"type":"function","name":"startGame","inputs":[],"outputs":[],"stateMutability":"nonpayable"},{"type":"function","name":"supportsInterface","inputs":[{"name":"interfaceId","type":"bytes4","internalType":"bytes4"}],"outputs":[{"name":"","type":"bool","internalType":"bool"}],"stateMutability":"view"},{"type":"function","name":"symbol","inputs":[],"outputs":[{"name":"","type":"string","internalType":"string"}],"stateMutability":"view"},{"type":"function","name":"tokenByIndex","inputs":[{"name":"index","type":"uint256","internalType":"uint256"}],"outputs":[{"name":"","type":"uint256","internalType":"uint256"}],"stateMutability":"view"},{"type":"function","name":"tokenNFTType","inputs":[{"name":"","type":"uint256","internalType":"uint256"}],"outputs":[{"name":"","type":"uint8","internalType":"enum MouthGameNFT.NFTType"}],"stateMutability":"view"},{"type":"function","name":"tokenOfOwnerByIndex","inputs":[{"name":"owner","type":"address","internalType":"address"},{"name":"index","type":"uint256","internalType":"uint256"}],"outputs":[{"name":"","type":"uint256","internalType":"uint256"}],"stateMutability":"view"},{"type":"function","name":"tokenURI","inputs":[{"name":"tokenId","type":"uint256","internalType":"uint256"}],"outputs":[{"name":"","type":"string","internalType":"string"}],"stateMutability":"view"},{"type":"function","name":"totalSupply","inputs":[],"outputs":[{"name":"","type":"uint256","internalType":"uint256"}],"stateMutability":"view"},{"type":"function","name":"transferFrom","inputs":[{"name":"from","type":"address","internalType":"address"},{"name":"to","type":"address","internalType":"address"},{"name":"tokenId","type":"uint256","internalType":"uint256"}],"outputs":[],"stateMutability":"nonpayable"},{"type":"function","name":"transferOwnership","inputs":[{"name":"newOwner","type":"address","internalType":"address"}],"outputs":[],"stateMutability":"nonpayable"},{"type":"function","name":"unpause","inputs":[],"outputs":[],"stateMutability":"nonpayable"},{"type":"function","name":"updateBaseURI","inputs":[{"name":"nftType","type":"uint8","internalType":"enum MouthGameNFT.NFTType"},{"name":"newBaseURI","type":"string","internalType":"string"}],"outputs":[],"stateMutability":"nonpayable"},{"type":"function","name":"upgradeToAndCall","inputs":[{"name":"newImplementation","type":"address","internalType":"address"},{"name":"data","type":"bytes","internalType":"bytes"}],"outputs":[],"stateMutability":"payable"},{"type":"function","name":"withdrawFunds","inputs":[],"outputs":[],"stateMutability":"nonpayable"},{"type":"event","name":"Approval","inputs":[{"name":"owner","type":"address","indexed":true,"internalType":"address"},{"name":"approved","type":"address","indexed":true,"internalType":"address"},{"name":"tokenId","type":"uint256","indexed":true,"internalType":"uint256"}],"anonymous":false},{"type":"event","name":"ApprovalForAll","inputs":[{"name":"owner","type":"address","indexed":true,"internalType":"address"},{"name":"operator","type":"address","indexed":true,"internalType":"address"},{"name":"approved","type":"bool","indexed":false,"internalType":"bool"}],"anonymous":false},{"type":"event","name":"BaseURIUpdated","inputs":[{"name":"nftType","type":"uint8","indexed":false,"internalType":"enum MouthGameNFT.NFTType"},{"name":"newBaseURI","type":"string","indexed":false,"internalType":"string"}],"anonymous":false},{"type":"event","name":"BatchMetadataUpdate","inputs":[{"name":"_fromTokenId","type":"uint256","indexed":false,"internalType":"uint256"},{"name":"_toTokenId","type":"uint256","indexed":false,"internalType":"uint256"}],"anonymous":false},{"type":"event","name":"FundsWithdrawn","inputs":[{"name":"owner","type":"address","indexed":true,"internalType":"address"},{"name":"amount","type":"uint256","indexed":false,"internalType":"uint256"}],"anonymous":false},{"type":"event","name":"GameEntryPaid","inputs":[{"name":"player","type":"address","indexed":true,"internalType":"address"},{"name":"amount","type":"uint256","indexed":false,"internalType":"uint256"}],"anonymous":false},{"type":"event","name":"Initialized","inputs":[{"name":"version","type":"uint64","indexed":false,"internalType":"uint64"}],"anonymous":false},{"type":"event","name":"MetadataUpdate","inputs":[{"name":"_tokenId","type":"uint256","indexed":false,"internalType":"uint256"}],"anonymous":false},{"type":"event","name":"NFTMinted","inputs":[{"name":"player","type":"address","indexed":true,"internalType":"address"},{"name":"tokenId","type":"uint256","indexed":false,"internalType":"uint256"},{"name":"nftType","type":"uint8","indexed":false,"internalType":"enum MouthGameNFT.NFTType"},{"name":"score","type":"uint256","indexed":false,"internalType":"uint256"}],"anonymous":false},{"type":"event","name":"OwnershipTransferred","inputs":[{"name":"previousOwner","type":"address","indexed":true,"internalType":"address"},{"name":"newOwner","type":"address","indexed":true,"internalType":"address"}],"anonymous":false},{"type":"event","name":"Paused","inputs":[{"name":"account","type":"address","indexed":false,"internalType":"address"}],"anonymous":false},{"type":"event","name":"ScoreRecorded","inputs":[{"name":"player","type":"address","indexed":true,"internalType":"address"},{"name":"score","type":"uint256","indexed":false,"internalType":"uint256"}],"anonymous":false},{"type":"event","name":"Transfer","inputs":[{"name":"from","type":"address","indexed":true,"internalType":"address"},{"name":"to","type":"address","indexed":true,"internalType":"address"},{"name":"tokenId","type":"uint256","indexed":true,"internalType":"uint256"}],"anonymous":false},{"type":"event","name":"Unpaused","inputs":[{"name":"account","type":"address","indexed":false,"internalType":"address"}],"anonymous":false},{"type":"event","name":"Upgraded","inputs":[{"name":"implementation","type":"address","indexed":true,"internalType":"address"}],"anonymous":false},{"type":"error","name":"AddressEmptyCode","inputs":[{"name":"target","type":"address","internalType":"address"}]},{"type":"error","name":"ERC1967InvalidImplementation","inputs":[{"name":"implementation","type":"address","internalType":"address"}]},{"type":"error","name":"ERC1967NonPayable","inputs":[]},{"type":"error","name":"ERC721EnumerableForbiddenBatchMint","inputs":[]},{"type":"error","name":"ERC721IncorrectOwner","inputs":[{"name":"sender","type":"address","internalType":"address"},{"name":"tokenId","type":"uint256","internalType":"uint256"},{"name":"owner","type":"address","internalType":"address"}]},{"type":"error","name":"ERC721InsufficientApproval","inputs":[{"name":"operator","type":"address","internalType":"address"},{"name":"tokenId","type":"uint256","internalType":"uint256"}]},{"type":"error","name":"ERC721InvalidApprover","inputs":[{"name":"approver","type":"address","internalType":"address"}]},{"type":"error","name":"ERC721InvalidOperator","inputs":[{"name":"operator","type":"address","internalType":"address"}]},{"type":"error","name":"ERC721InvalidOwner","inputs":[{"name":"owner","type":"address","internalType":"address"}]},{"type":"error","name":"ERC721InvalidReceiver","inputs":[{"name":"receiver","type":"address","internalType":"address"}]},{"type":"error","name":"ERC721InvalidSender","inputs":[{"name":"sender","type":"address","internalType":"address"}]},{"type":"error","name":"ERC721NonexistentToken","inputs":[{"name":"tokenId","type":"uint256","internalType":"uint256"}]},{"type":"error","name":"ERC721OutOfBoundsIndex","inputs":[{"name":"owner","type":"address","internalType":"address"},{"name":"index","type":"uint256","internalType":"uint256"}]},{"type":"error","name":"EnforcedPause","inputs":[]},{"type":"error","name":"ExpectedPause","inputs":[]},{"type":"error","name":"FailedCall","inputs":[]},{"type":"error","name":"InvalidInitialization","inputs":[]},{"type":"error","name":"NotInitializing","inputs":[]},{"type":"error","name":"OwnableInvalidOwner","inputs":[{"name":"owner","type":"address","internalType":"address"}]},{"type":"error","name":"OwnableUnauthorizedAccount","inputs":[{"name":"account","type":"address","internalType":"address"}]},{"type":"error","name":"ReentrancyGuardReentrantCall","inputs":[]},{"type":"error","name":"UUPSUnauthorizedCallContext","inputs":[]},{"type":"error","name":"UUPSUnsupportedProxiableUUID","inputs":[{"name":"slot","type":"bytes32","internalType":"bytes32"}]}],"bytecode":{"object":"0x60a060405230608052348015610013575f5ffd5b5061001c610021565b6100d3565b7ff0c57e16840df040f15088dc2f81fe391c3923bec73e23a9662efc9c229c6a00805468010000000000000000900460ff16156100715760405163f92ee8a960e01b815260040160405180910390fd5b80546001600160401b03908116146100d05780546001600160401b0319166001600160401b0390811782556040519081527fc7f505b2f371ae2175ee4913f4499e1f2633a7b5936321eed1cdaeb6115181d29060200160405180910390a15b50565b60805161369c6100f95f395f8181611cb601528181611cdf0152611e1e015261369c5ff3fe608060405260043610610280575f3560e01c80636352211e11610155578063b39bfc65116100be578063d65ab5f211610078578063d65ab5f2146107b9578063e8ccf349146107cd578063e985e9c5146107e1578063ef3dabc114610800578063efedd7d114610814578063f2fde38b14610833575f5ffd5b8063b39bfc65146106ee578063b88d4fde1461070d578063c7ffadb61461072c578063c87b56dd14610740578063cc1ba2d61461075f578063d4a646ce1461079a575f5ffd5b80638da5cb5b1161010f5780638da5cb5b1461062a57806395d89b411461063e5780639f3b606314610652578063a22cb46514610680578063a523d35e1461069f578063ad3cb1cc146106be575f5ffd5b80636352211e1461059157806370a08231146105b0578063715018a6146105cf578063795302d3146105e35780638456cb5914610602578063890ce3cf14610616575f5ffd5b80633e5edbd3116101f75780634f6ccce7116101b15780634f6ccce7146104da57806352d1902d146104f957806355a8e55d1461050d5780635c975abb146105215780635eb712c214610544578063623200031461057d575f5ffd5b80633e5edbd3146104425780633f4ba83a1461044a57806342842e0e1461045e578063432fb34d1461047d5780634d08a6671461049c5780634f1ef286146104c7575f5ffd5b8063109921b111610248578063109921b11461038957806318160ddd146103b157806323b872dd146103d157806324600fc3146103f05780632f745c59146104045780633d8db18d14610423575f5ffd5b806301ffc9a71461028457806306fdde03146102b8578063081812fc146102d9578063095ea7b3146103105780630f45db9114610331575b5f5ffd5b34801561028f575f5ffd5b506102a361029e366004612ea2565b610852565b60405190151581526020015b60405180910390f35b3480156102c3575f5ffd5b506102cc610862565b6040516102af9190612eeb565b3480156102e4575f5ffd5b506102f86102f3366004612efd565b610903565b6040516001600160a01b0390911681526020016102af565b34801561031b575f5ffd5b5061032f61032a366004612f2f565b610917565b005b34801561033c575f5ffd5b5061035061034b366004612f57565b610926565b604080519615158752602087019590955292151593850193909352151560608401529015156080830152151560a082015260c0016102af565b348015610394575f5ffd5b506103a3662386f26fc1000081565b6040519081526020016102af565b3480156103bc575f5ffd5b505f5160206136075f395f51905f52546103a3565b3480156103dc575f5ffd5b5061032f6103eb366004612f70565b6109ad565b3480156103fb575f5ffd5b5061032f610a3b565b34801561040f575f5ffd5b506103a361041e366004612f2f565b610bae565b34801561042e575f5ffd5b506102a361043d366004612f57565b610c1f565b61032f610cab565b348015610455575f5ffd5b5061032f610df3565b348015610469575f5ffd5b5061032f610478366004612f70565b610e03565b348015610488575f5ffd5b5061032f610497366004612f57565b610e22565b3480156104a7575f5ffd5b506103a36104b6366004612f57565b60016020525f908152604090205481565b61032f6104d536600461304d565b610e4a565b3480156104e5575f5ffd5b506103a36104f4366004612efd565b610e65565b348015610504575f5ffd5b506103a3610ed7565b348015610518575f5ffd5b506102cc610ef2565b34801561052c575f5ffd5b505f5160206136275f395f51905f525460ff166102a3565b34801561054f575f5ffd5b506102a361055e3660046130a5565b600260209081525f928352604080842090915290825290205460ff1681565b348015610588575f5ffd5b506103a360a081565b34801561059c575f5ffd5b506102f86105ab366004612efd565b610f7e565b3480156105bb575f5ffd5b506103a36105ca366004612f57565b610f88565b3480156105da575f5ffd5b5061032f610fe0565b3480156105ee575f5ffd5b5061032f6105fd3660046130d6565b610ff1565b34801561060d575f5ffd5b5061032f6110ce565b348015610621575f5ffd5b5061032f6110de565b348015610635575f5ffd5b506102f86112cd565b348015610649575f5ffd5b506102cc6112fb565b34801561065d575f5ffd5b506102a361066c366004612f57565b5f6020819052908152604090205460ff1681565b34801561068b575f5ffd5b5061032f61069a3660046130f0565b611339565b3480156106aa575f5ffd5b5061032f6106b9366004613129565b611344565b3480156106c9575f5ffd5b506102cc604051806040016040528060058152602001640352e302e360dc1b81525081565b3480156106f9575f5ffd5b506102a3610708366004612f57565b61148f565b348015610718575f5ffd5b5061032f6107273660046131de565b6114f5565b348015610737575f5ffd5b506102cc61150d565b34801561074b575f5ffd5b506102cc61075a366004612efd565b61151a565b34801561076a575f5ffd5b5061078d610779366004612efd565b60066020525f908152604090205460ff1681565b6040516102af919061325d565b3480156107a5575f5ffd5b5061032f6107b4366004612f2f565b6116d3565b3480156107c4575f5ffd5b5061032f611752565b3480156107d8575f5ffd5b506103a3603281565b3480156107ec575f5ffd5b506102a36107fb36600461326b565b6117fe565b34801561080b575f5ffd5b5061032f61184a565b34801561081f575f5ffd5b5061032f61082e366004612efd565b611a24565b34801561083e575f5ffd5b5061032f61084d366004612f57565b611aaf565b5f61085c82611ae9565b92915050565b5f5160206135c75f395f51905f52805460609190819061088190613293565b80601f01602080910402602001604051908101604052809291908181526020018280546108ad90613293565b80156108f85780601f106108cf576101008083540402835291602001916108f8565b820191905f5260205f20905b8154815290600101906020018083116108db57829003601f168201915b505050505091505090565b5f61090d82611b0d565b5061085c82611b44565b610922828233611b7d565b5050565b6001600160a01b0381165f9081526020818152604080832054600180845282852054600280865284872092875291909452828520549085529184205460ff91821694928216929116908085801561097e575060328510155b8015610988575083155b9150858015610998575060a08510155b80156109a2575082155b905091939550919395565b6001600160a01b0382166109db57604051633250574960e11b81525f60048201526024015b60405180910390fd5b5f6109e7838333611b8a565b9050836001600160a01b0316816001600160a01b031614610a35576040516364283d7b60e01b81526001600160a01b03808616600483015260248201849052821660448201526064016109d2565b50505050565b610a43611ba0565b610a4b611bd2565b4780610aa45760405162461bcd60e51b815260206004820152602260248201527f4d6f75746847616d654e46543a204e6f2066756e647320746f20776974686472604482015261617760f01b60648201526084016109d2565b5f610aad6112cd565b6001600160a01b0316826040515f6040518083038185875af1925050503d805f8114610af4576040519150601f19603f3d011682016040523d82523d5f602084013e610af9565b606091505b5050905080610b4a5760405162461bcd60e51b815260206004820152601f60248201527f4d6f75746847616d654e46543a205769746864726177616c206661696c65640060448201526064016109d2565b610b526112cd565b6001600160a01b03167feaff4b37086828766ad3268786972c0cd24259d4c87a80f9d3963a3c3d999b0d83604051610b8c91815260200190565b60405180910390a25050610bac60015f5160206136475f395f51905f5255565b565b5f5f5160206135a75f395f51905f52610bc684610f88565b8310610bf75760405163295f44f760e21b81526001600160a01b0385166004820152602481018490526044016109d2565b6001600160a01b0384165f908152602091825260408082208583529092522054905092915050565b6001600160a01b0381165f9081526020819052604081205460ff168015610c5e57506001600160a01b0382165f90815260016020526040902054603211155b801561085c57506001600160a01b0382165f9081526002602052604081209060015b6002811115610c9157610c91613229565b815260208101919091526040015f205460ff161592915050565b610cb3611c1c565b610cbb611bd2565b662386f26fc100003414610d205760405162461bcd60e51b815260206004820152602660248201527f4d6f75746847616d654e46543a20496e636f7272656374207061796d656e7420604482015265185b5bdd5b9d60d21b60648201526084016109d2565b335f9081526020819052604090205460ff1615610d8a5760405162461bcd60e51b815260206004820152602260248201527f4d6f75746847616d654e46543a20416c7265616479207061696420746f20706c604482015261617960f01b60648201526084016109d2565b335f8181526020819052604090819020805460ff19166001179055517fb6e665c3a05f75ce4667ecf168fc40fcee6fb088f871063a94b2e0880b1c556890610dd59034815260200190565b60405180910390a2610bac60015f5160206136475f395f51905f5255565b610dfb611ba0565b610bac611c4c565b610e1d83838360405180602001604052805f8152506114f5565b505050565b610e2a611ba0565b6001600160a01b03165f908152602081905260409020805460ff19169055565b610e52611cab565b610e5b82611d4f565b6109228282611d57565b5f5f5160206135a75f395f51905f52610e895f5160206136075f395f51905f525490565b8310610eb15760405163295f44f760e21b81525f6004820152602481018490526044016109d2565b806002018381548110610ec657610ec66132cb565b905f5260205f200154915050919050565b5f610ee0611e13565b505f5160206135e75f395f51905f5290565b60048054610eff90613293565b80601f0160208091040260200160405190810160405280929190818152602001828054610f2b90613293565b8015610f765780601f10610f4d57610100808354040283529160200191610f76565b820191905f5260205f20905b815481529060010190602001808311610f5957829003601f168201915b505050505081565b5f61085c82611b0d565b5f5f5160206135c75f395f51905f526001600160a01b038316610fc0576040516322718ad960e21b81525f60048201526024016109d2565b6001600160a01b039092165f908152600390920160205250604090205490565b610fe8611ba0565b610bac5f611e5c565b610ff9611ba0565b600182600281111561100d5761100d613229565b0361102457600461101e8282613323565b50611091565b600282600281111561103857611038613229565b0361104957600561101e8282613323565b60405162461bcd60e51b815260206004820152601e60248201527f4d6f75746847616d654e46543a20496e76616c6964204e46542074797065000060448201526064016109d2565b7f6b2f2af56f5278465249175a3f38d73d4ec9f2e82a78075366f133a320794b9e82826040516110c29291906133dd565b60405180910390a15050565b6110d6611ba0565b610bac611ecc565b6110e6611c1c565b6110ee611bd2565b335f9081526020819052604090205460ff1661111c5760405162461bcd60e51b81526004016109d2906133fc565b335f9081526001602052604090205460a011156111925760405162461bcd60e51b815260206004820152602e60248201527f4d6f75746847616d654e46543a2053636f726520746f6f206c6f7720666f722060448201526d1bdc195b881b5bdd5d1a0813919560921b60648201526084016109d2565b335f90815260026020818152604080842092845291905290205460ff16156112105760405162461bcd60e51b815260206004820152602b60248201527f4d6f75746847616d654e46543a204f70656e206d6f757468204e465420616c7260448201526a1958591e481b5a5b9d195960aa1b60648201526084016109d2565b600380545f918261122083613454565b90915550335f8181526002602081815260408084208385528252808420805460ff199081166001179091558685526006909252909220805490921617905590915061126b9082611f14565b335f81815260016020526040908190205490517f3cbfb57d864ce4a902d50b78adfea62e75f66126f04179416187dbed79840d97916112ae91859160029161346c565b60405180910390a250610bac60015f5160206136475f395f51905f5255565b7f9016d09d72d40fdae2fd8ceac6b6234c7706214fd39c1cd1e609a0528c199300546001600160a01b031690565b7f80bb2b638cc20bc4d0a60d66940f3ab4a00c1d7b313497ca82fb0b4ab007930180546060915f5160206135c75f395f51905f529161088190613293565b610922338383611f2d565b5f61134d611fdc565b805490915060ff600160401b82041615906001600160401b03165f811580156113735750825b90505f826001600160401b0316600114801561138e5750303b155b90508115801561139c575080155b156113ba5760405163f92ee8a960e01b815260040160405180910390fd5b845467ffffffffffffffff1916600117855583156113e457845460ff60401b1916600160401b1785555b6113ee8989612004565b6113f6612016565b6113fe612016565b6114073361201e565b61140f612016565b61141761202f565b61141f612016565b600461142b8882613323565b5060056114388782613323565b506001600355831561148457845460ff60401b19168555604051600181527fc7f505b2f371ae2175ee4913f4499e1f2633a7b5936321eed1cdaeb6115181d29060200160405180910390a15b505050505050505050565b6001600160a01b0381165f9081526020819052604081205460ff1680156114ce57506001600160a01b0382165f9081526001602052604090205460a011155b801561085c57506001600160a01b0382165f90815260026020819052604082209190610c80565b6115008484846109ad565b610a35338585858561203f565b60058054610eff90613293565b60605f61152683612167565b6001600160a01b0316036115925760405162461bcd60e51b815260206004820152602d60248201527f4d6f75746847616d654e46543a2055524920717565727920666f72206e6f6e6560448201526c3c34b9ba32b73a103a37b5b2b760991b60648201526084016109d2565b5f8281526006602052604090205460ff16606060018260028111156115b9576115b9613229565b0361164e57600480546115cb90613293565b80601f01602080910402602001604051908101604052809291908181526020018280546115f790613293565b80156116425780601f1061161957610100808354040283529160200191611642565b820191905f5260205f20905b81548152906001019060200180831161162557829003601f168201915b50505050509050611685565b600282600281111561166257611662613229565b0361167457600580546115cb90613293565b61167d846121a0565b949350505050565b5f8151116116a15760405180602001604052805f81525061167d565b806116ab856122cf565b6040516020016116bc9291906134a5565b604051602081830303815290604052949350505050565b6116db611ba0565b6001600160a01b0382165f90815260016020526040902054811115610922576001600160a01b0382165f8181526001602052604090819020839055517f49a4a744d867bf4e869d90a3f297ed819fbcf090c50c918f739c482556255594906117469084815260200190565b60405180910390a25050565b61175a611c1c565b611762611bd2565b335f9081526020819052604090205460ff166117d25760405162461bcd60e51b815260206004820152602960248201527f4d6f75746847616d654e46543a20506c6179657220686173206e6f74207061696044820152686420746f20706c617960b81b60648201526084016109d2565b335f908152602081905260409020805460ff19169055610bac60015f5160206136475f395f51905f5255565b6001600160a01b039182165f9081527f80bb2b638cc20bc4d0a60d66940f3ab4a00c1d7b313497ca82fb0b4ab00793056020908152604080832093909416825291909152205460ff1690565b611852611c1c565b61185a611bd2565b335f9081526020819052604090205460ff166118885760405162461bcd60e51b81526004016109d2906133fc565b335f90815260016020526040902054603211156119005760405162461bcd60e51b815260206004820152603060248201527f4d6f75746847616d654e46543a2053636f726520746f6f206c6f7720666f722060448201526f18db1bdcd959081b5bdd5d1a0813919560821b60648201526084016109d2565b335f9081526002602090815260408083206001845290915290205460ff16156119815760405162461bcd60e51b815260206004820152602d60248201527f4d6f75746847616d654e46543a20436c6f736564206d6f757468204e4654206160448201526c1b1c9958591e481b5a5b9d1959609a1b60648201526084016109d2565b600380545f918261199183613454565b90915550335f8181526002602090815260408083206001808552908352818420805460ff19908116831790915586855260069093529220805490911690911790559091506119df9082611f14565b335f818152600160208190526040918290205491517f3cbfb57d864ce4a902d50b78adfea62e75f66126f04179416187dbed79840d97926112ae92869290919061346c565b611a2c611c1c565b611a34611bd2565b335f90815260016020526040902054811115611a9657335f8181526001602052604090819020839055517f49a4a744d867bf4e869d90a3f297ed819fbcf090c50c918f739c48255625559490611a8d9084815260200190565b60405180910390a25b611aac60015f5160206136475f395f51905f5255565b50565b611ab7611ba0565b6001600160a01b038116611ae057604051631e4fbdf760e01b81525f60048201526024016109d2565b611aac81611e5c565b5f6001600160e01b03198216632483248360e11b148061085c575061085c826123cb565b5f5f611b1883612167565b90506001600160a01b03811661085c57604051637e27328960e01b8152600481018490526024016109d2565b5f9081527f80bb2b638cc20bc4d0a60d66940f3ab4a00c1d7b313497ca82fb0b4ab007930460205260409020546001600160a01b031690565b610e1d83838360016123ef565b5f611b96848484612502565b90505b9392505050565b33611ba96112cd565b6001600160a01b031614610bac5760405163118cdaa760e01b81523360048201526024016109d2565b5f5160206136475f395f51905f52805460011901611c0357604051633ee5aeb560e01b815260040160405180910390fd5b60029055565b60015f5160206136475f395f51905f5255565b5f5160206136275f395f51905f525460ff1615610bac5760405163d93c066560e01b815260040160405180910390fd5b611c546125f8565b5f5160206136275f395f51905f52805460ff191681557f5db9ee0a495bf2e6ff9c91a7834c1ba4fdd244a5e8aa4e537bd38aeae4b073aa335b6040516001600160a01b03909116815260200160405180910390a150565b306001600160a01b037f0000000000000000000000000000000000000000000000000000000000000000161480611d3157507f00000000000000000000000000000000000000000000000000000000000000006001600160a01b0316611d255f5160206135e75f395f51905f52546001600160a01b031690565b6001600160a01b031614155b15610bac5760405163703e46dd60e11b815260040160405180910390fd5b611aac611ba0565b816001600160a01b03166352d1902d6040518163ffffffff1660e01b8152600401602060405180830381865afa925050508015611db1575060408051601f3d908101601f19168201909252611dae918101906134b9565b60015b611dd957604051634c9c8ce360e01b81526001600160a01b03831660048201526024016109d2565b5f5160206135e75f395f51905f528114611e0957604051632a87526960e21b8152600481018290526024016109d2565b610e1d8383612627565b306001600160a01b037f00000000000000000000000000000000000000000000000000000000000000001614610bac5760405163703e46dd60e11b815260040160405180910390fd5b7f9016d09d72d40fdae2fd8ceac6b6234c7706214fd39c1cd1e609a0528c19930080546001600160a01b031981166001600160a01b03848116918217845560405192169182907f8be0079c531659141344cd1fd0a4f28419497f9722a3daafe3b4186f6b6457e0905f90a3505050565b611ed4611c1c565b5f5160206136275f395f51905f52805460ff191660011781557f62e78cea01bee320cd4e420270b5ea74000d11b0c9f74754ebdbfc544b05a25833611c8d565b610922828260405180602001604052805f81525061267c565b5f5160206135c75f395f51905f526001600160a01b038316611f6d57604051630b61174360e31b81526001600160a01b03841660048201526024016109d2565b6001600160a01b038481165f818152600584016020908152604080832094881680845294825291829020805460ff191687151590811790915591519182527f17307eab39ab6107e8899845ad3d59bd9653f200f220920489ca2b5937696c31910160405180910390a350505050565b5f807ff0c57e16840df040f15088dc2f81fe391c3923bec73e23a9662efc9c229c6a0061085c565b61200c612693565b61092282826126b8565b610bac612693565b612026612693565b611aac816126e8565b612037612693565b610bac6126f0565b6001600160a01b0383163b1561216057604051630a85bd0160e11b81526001600160a01b0384169063150b7a02906120819088908890879087906004016134d0565b6020604051808303815f875af19250505080156120bb575060408051601f3d908101601f191682019092526120b89181019061350c565b60015b612122573d8080156120e8576040519150601f19603f3d011682016040523d82523d5f602084013e6120ed565b606091505b5080515f0361211a57604051633250574960e11b81526001600160a01b03851660048201526024016109d2565b805181602001fd5b6001600160e01b03198116630a85bd0160e11b1461215e57604051633250574960e11b81526001600160a01b03851660048201526024016109d2565b505b5050505050565b5f9081527f80bb2b638cc20bc4d0a60d66940f3ab4a00c1d7b313497ca82fb0b4ab007930260205260409020546001600160a01b031690565b60607f0542a41881ee128a365a727b282c86fa859579490b9bb45aab8503648c8e79006121cc83611b0d565b505f83815260208290526040812080546121e590613293565b80601f016020809104026020016040519081016040528092919081815260200182805461221190613293565b801561225c5780601f106122335761010080835404028352916020019161225c565b820191905f5260205f20905b81548152906001019060200180831161223f57829003601f168201915b505050505090505f61227860408051602081019091525f815290565b905080515f0361228a57509392505050565b8151156122bd5780826040516020016122a49291906134a5565b6040516020818303038152906040529350505050919050565b6122c6856126f8565b95945050505050565b6060815f036122f55750506040805180820190915260018152600360fc1b602082015290565b815f5b811561231e578061230881613454565b91506123179050600a8361353b565b91506122f8565b5f816001600160401b0381111561233757612337612faa565b6040519080825280601f01601f191660200182016040528015612361576020820181803683370190505b5090505b841561167d5761237660018361354e565b9150612383600a86613561565b61238e906030613574565b60f81b8183815181106123a3576123a36132cb565b60200101906001600160f81b03191690815f1a9053506123c4600a8661353b565b9450612365565b5f6001600160e01b0319821663780e9d6360e01b148061085c575061085c82612768565b5f5160206135c75f395f51905f52818061241157506001600160a01b03831615155b156124d2575f61242085611b0d565b90506001600160a01b0384161580159061244c5750836001600160a01b0316816001600160a01b031614155b801561245f575061245d81856117fe565b155b156124885760405163a9fbf51f60e01b81526001600160a01b03851660048201526024016109d2565b82156124d05784866001600160a01b0316826001600160a01b03167f8c5be1e5ebec7d5bd14f71427d1e84f3dd0314c0f7b2291e5b200ac8c7c3b92560405160405180910390a45b505b5f93845260040160205250506040902080546001600160a01b0319166001600160a01b0392909216919091179055565b5f5f61250f8585856127b7565b90506001600160a01b03811661259657612591845f5160206136075f395f51905f5280545f8381527f645e039705490088daad89bae25049a34f4a9072d398537b1ab2425f24cbed0360205260408120829055600182018355919091527fa42f15e5d656f8155fd7419d740a6073999f19cd6e061449ce4a257150545bf20155565b6125b9565b846001600160a01b0316816001600160a01b0316146125b9576125b981856128b9565b6001600160a01b0385166125d5576125d084612950565b611b96565b846001600160a01b0316816001600160a01b031614611b9657611b968585612a1d565b5f5160206136275f395f51905f525460ff16610bac57604051638dfc202b60e01b815260040160405180910390fd5b61263082612a75565b6040516001600160a01b038316907fbc7cd75a20ee27fd9adebab32041f755214dbc6bffa90cc0225b39da2e5c2d3b905f90a280511561267457610e1d8282612ad8565b610922612b41565b6126868383612b60565b610e1d335f85858561203f565b61269b612bc1565b610bac57604051631afcd79f60e31b815260040160405180910390fd5b6126c0612693565b5f5160206135c75f395f51905f52806126d98482613323565b5060018101610a358382613323565b611ab7612693565b611c09612693565b606061270382611b0d565b505f61271960408051602081019091525f815290565b90505f8151116127375760405180602001604052805f815250611b99565b8061274184612bda565b6040516020016127529291906134a5565b6040516020818303038152906040529392505050565b5f6001600160e01b031982166380ac58cd60e01b148061279857506001600160e01b03198216635b5e139f60e01b145b8061085c57506301ffc9a760e01b6001600160e01b031983161461085c565b5f5f5160206135c75f395f51905f52816127d085612167565b90506001600160a01b038416156127ec576127ec818587612c69565b6001600160a01b03811615612828576128075f865f5f6123ef565b6001600160a01b0381165f908152600383016020526040902080545f190190555b6001600160a01b03861615612858576001600160a01b0386165f9081526003830160205260409020805460010190555b5f85815260028301602052604080822080546001600160a01b0319166001600160a01b038a811691821790925591518893918516917fddf252ad1be2c89b69c2b068fc378daa952ba7f163c4a11628f55a4df523b3ef91a495945050505050565b5f5160206135a75f395f51905f525f6128d184610f88565b5f8481526001840160209081526040808320546001600160a01b03891684529186905290912091925090818314612929575f838152602082815260408083205485845281842081905583526001870190915290208290555b5f948552600190930160209081526040808620869055928552929092528220919091555050565b5f5160206136075f395f51905f52545f5160206135a75f395f51905f52905f9061297c9060019061354e565b5f8481526003840160205260408120546002850180549394509092849081106129a7576129a76132cb565b905f5260205f2001549050808460020183815481106129c8576129c86132cb565b5f91825260208083209091019290925582815260038601909152604080822084905586825281205560028401805480612a0357612a03613587565b600190038181905f5260205f20015f905590555050505050565b5f5160206135a75f395f51905f525f6001612a3785610f88565b612a41919061354e565b6001600160a01b039094165f9081526020838152604080832087845282528083208690559482526001909301909252502055565b806001600160a01b03163b5f03612aaa57604051634c9c8ce360e01b81526001600160a01b03821660048201526024016109d2565b5f5160206135e75f395f51905f5280546001600160a01b0319166001600160a01b0392909216919091179055565b60605f5f846001600160a01b031684604051612af4919061359b565b5f60405180830381855af49150503d805f8114612b2c576040519150601f19603f3d011682016040523d82523d5f602084013e612b31565b606091505b50915091506122c6858383612ccd565b3415610bac5760405163b398979f60e01b815260040160405180910390fd5b6001600160a01b038216612b8957604051633250574960e11b81525f60048201526024016109d2565b5f612b9583835f611b8a565b90506001600160a01b03811615610e1d576040516339e3563760e11b81525f60048201526024016109d2565b5f612bca611fdc565b54600160401b900460ff16919050565b60605f612be683612d29565b60010190505f816001600160401b03811115612c0457612c04612faa565b6040519080825280601f01601f191660200182016040528015612c2e576020820181803683370190505b5090508181016020015b5f19016f181899199a1a9b1b9c1cb0b131b232b360811b600a86061a8153600a8504945084612c3857509392505050565b612c74838383612e00565b610e1d576001600160a01b038316612ca257604051637e27328960e01b8152600481018290526024016109d2565b60405163177e802f60e01b81526001600160a01b0383166004820152602481018290526044016109d2565b606082612ce257612cdd82612e64565b611b99565b8151158015612cf957506001600160a01b0384163b155b15612d2257604051639996b31560e01b81526001600160a01b03851660048201526024016109d2565b5080611b99565b5f8072184f03e93ff9f4daa797ed6e38ed64bf6a1f0160401b8310612d675772184f03e93ff9f4daa797ed6e38ed64bf6a1f0160401b830492506040015b6d04ee2d6d415b85acef81000000008310612d93576d04ee2d6d415b85acef8100000000830492506020015b662386f26fc100008310612db157662386f26fc10000830492506010015b6305f5e1008310612dc9576305f5e100830492506008015b6127108310612ddd57612710830492506004015b60648310612def576064830492506002015b600a831061085c5760010192915050565b5f6001600160a01b03831615801590611b965750826001600160a01b0316846001600160a01b03161480612e395750612e3984846117fe565b80611b965750826001600160a01b0316612e5283611b44565b6001600160a01b031614949350505050565b805115612e745780518082602001fd5b60405163d6bda27560e01b815260040160405180910390fd5b6001600160e01b031981168114611aac575f5ffd5b5f60208284031215612eb2575f5ffd5b8135611b9981612e8d565b5f81518084528060208401602086015e5f602082860101526020601f19601f83011685010191505092915050565b602081525f611b996020830184612ebd565b5f60208284031215612f0d575f5ffd5b5035919050565b80356001600160a01b0381168114612f2a575f5ffd5b919050565b5f5f60408385031215612f40575f5ffd5b612f4983612f14565b946020939093013593505050565b5f60208284031215612f67575f5ffd5b611b9982612f14565b5f5f5f60608486031215612f82575f5ffd5b612f8b84612f14565b9250612f9960208501612f14565b929592945050506040919091013590565b634e487b7160e01b5f52604160045260245ffd5b5f82601f830112612fcd575f5ffd5b8135602083015f5f6001600160401b03841115612fec57612fec612faa565b50604051601f19601f85018116603f011681018181106001600160401b038211171561301a5761301a612faa565b604052838152905080828401871015613031575f5ffd5b838360208301375f602085830101528094505050505092915050565b5f5f6040838503121561305e575f5ffd5b61306783612f14565b915060208301356001600160401b03811115613081575f5ffd5b61308d85828601612fbe565b9150509250929050565b803560038110612f2a575f5ffd5b5f5f604083850312156130b6575f5ffd5b6130bf83612f14565b91506130cd60208401613097565b90509250929050565b5f5f604083850312156130e7575f5ffd5b61306783613097565b5f5f60408385031215613101575f5ffd5b61310a83612f14565b91506020830135801515811461311e575f5ffd5b809150509250929050565b5f5f5f5f6080858703121561313c575f5ffd5b84356001600160401b03811115613151575f5ffd5b61315d87828801612fbe565b94505060208501356001600160401b03811115613178575f5ffd5b61318487828801612fbe565b93505060408501356001600160401b0381111561319f575f5ffd5b6131ab87828801612fbe565b92505060608501356001600160401b038111156131c6575f5ffd5b6131d287828801612fbe565b91505092959194509250565b5f5f5f5f608085870312156131f1575f5ffd5b6131fa85612f14565b935061320860208601612f14565b92506040850135915060608501356001600160401b038111156131c6575f5ffd5b634e487b7160e01b5f52602160045260245ffd5b6003811061325957634e487b7160e01b5f52602160045260245ffd5b9052565b6020810161085c828461323d565b5f5f6040838503121561327c575f5ffd5b61328583612f14565b91506130cd60208401612f14565b600181811c908216806132a757607f821691505b6020821081036132c557634e487b7160e01b5f52602260045260245ffd5b50919050565b634e487b7160e01b5f52603260045260245ffd5b601f821115610e1d57805f5260205f20601f840160051c810160208510156133045750805b601f840160051c820191505b81811015612160575f8155600101613310565b81516001600160401b0381111561333c5761333c612faa565b6133508161334a8454613293565b846132df565b6020601f821160018114613382575f831561336b5750848201515b5f19600385901b1c1916600184901b178455612160565b5f84815260208120601f198516915b828110156133b15787850151825560209485019460019092019101613391565b50848210156133ce57868401515f19600387901b60f8161c191681555b50505050600190811b01905550565b6133e7818461323d565b604060208201525f611b966040830184612ebd565b60208082526024908201527f4d6f75746847616d654e46543a204d7573742070617920746f20706c617920666040820152631a5c9cdd60e21b606082015260800190565b634e487b7160e01b5f52601160045260245ffd5b5f6001820161346557613465613440565b5060010190565b83815260608101613480602083018561323d565b826040830152949350505050565b5f81518060208401855e5f93019283525090919050565b5f611b966134b3838661348e565b8461348e565b5f602082840312156134c9575f5ffd5b5051919050565b6001600160a01b03858116825284166020820152604081018390526080606082018190525f9061350290830184612ebd565b9695505050505050565b5f6020828403121561351c575f5ffd5b8151611b9981612e8d565b634e487b7160e01b5f52601260045260245ffd5b5f8261354957613549613527565b500490565b8181038181111561085c5761085c613440565b5f8261356f5761356f613527565b500690565b8082018082111561085c5761085c613440565b634e487b7160e01b5f52603160045260245ffd5b5f611b99828461348e56fe645e039705490088daad89bae25049a34f4a9072d398537b1ab2425f24cbed0080bb2b638cc20bc4d0a60d66940f3ab4a00c1d7b313497ca82fb0b4ab0079300360894a13ba1a3210667c828492db98dca3e2076cc3735a920a3ca505d382bbc645e039705490088daad89bae25049a34f4a9072d398537b1ab2425f24cbed02cd5ed15c6e187e77e9aee88184c21f4f2182ab5827cb3b7e07fbedcd63f033009b779b17422d0df92223018b32b4d1fa46e071723d6817e2486d003becc55f00a26469706673582212206e7b1884e0e0d13d768be2203d127d2f8cf2626438470bdbe7172b2038981dc864736f6c634300081c0033","linkReferences":{}},"methodIdentifiers":{"CLOSED_MOUTH_THRESHOLD()":"e8ccf349","GAME_ENTRY_FEE()":"109921b1","OPEN_MOUTH_THRESHOLD()":"62320003","UPGRADE_INTERFACE_VERSION()":"ad3cb1cc","approve(address,uint256)":"095ea7b3","balanceOf(address)":"70a08231","canMintClosedMouth(address)":"3d8db18d","canMintOpenMouth(address)":"b39bfc65","closedMouthBaseURI()":"55a8e55d","getApproved(uint256)":"081812fc","getPlayerStatus(address)":"0f45db91","hasMintedNFT(address,uint8)":"5eb712c2","hasPaidToPlay(address)":"9f3b6063","initialize(string,string,string,string)":"a523d35e","isApprovedForAll(address,address)":"e985e9c5","mintClosedMouthNFT()":"ef3dabc1","mintOpenMouthNFT()":"890ce3cf","name()":"06fdde03","openMouthBaseURI()":"c7ffadb6","owner()":"8da5cb5b","ownerOf(uint256)":"6352211e","pause()":"8456cb59","paused()":"5c975abb","payToPlay()":"3e5edbd3","playerHighestScores(address)":"4d08a667","proxiableUUID()":"52d1902d","recordScore(uint256)":"efedd7d1","recordScoreForPlayer(address,uint256)":"d4a646ce","renounceOwnership()":"715018a6","resetPlayerPayment(address)":"432fb34d","safeTransferFrom(address,address,uint256)":"42842e0e","safeTransferFrom(address,address,uint256,bytes)":"b88d4fde","setApprovalForAll(address,bool)":"a22cb465","startGame()":"d65ab5f2","supportsInterface(bytes4)":"01ffc9a7","symbol()":"95d89b41","tokenByIndex(uint256)":"4f6ccce7","tokenNFTType(uint256)":"cc1ba2d6","tokenOfOwnerByIndex(address,uint256)":"2f745c59","tokenURI(uint256)":"c87b56dd","totalSupply()":"18160ddd","transferFrom(address,address,uint256)":"23b872dd","transferOwnership(address)":"f2fde38b","unpause()":"3f4ba83a","updateBaseURI(uint8,string)":"795302d3","upgradeToAndCall(address,bytes)":"4f1ef286","withdrawFunds()":"24600fc3"},"id":59}