{"abi":[{"type":"constructor","inputs":[],"stateMutability":"nonpayable"},{"type":"function","name":"CLOSED_MOUTH_THRESHOLD","inputs":[],"outputs":[{"name":"","type":"uint256","internalType":"uint256"}],"stateMutability":"view"},{"type":"function","name":"GAME_ENTRY_FEE","inputs":[],"outputs":[{"name":"","type":"uint256","internalType":"uint256"}],"stateMutability":"view"},{"type":"function","name":"OPEN_MOUTH_THRESHOLD","inputs":[],"outputs":[{"name":"","type":"uint256","internalType":"uint256"}],"stateMutability":"view"},{"type":"function","name":"UPGRADE_INTERFACE_VERSION","inputs":[],"outputs":[{"name":"","type":"string","internalType":"string"}],"stateMutability":"view"},{"type":"function","name":"approve","inputs":[{"name":"to","type":"address","internalType":"address"},{"name":"tokenId","type":"uint256","internalType":"uint256"}],"outputs":[],"stateMutability":"nonpayable"},{"type":"function","name":"balanceOf","inputs":[{"name":"owner","type":"address","internalType":"address"}],"outputs":[{"name":"","type":"uint256","internalType":"uint256"}],"stateMutability":"view"},{"type":"function","name":"canMintClosedMouth","inputs":[{"name":"player","type":"address","internalType":"address"}],"outputs":[{"name":"","type":"bool","internalType":"bool"}],"stateMutability":"view"},{"type":"function","name":"canMintOpenMouth","inputs":[{"name":"player","type":"address","internalType":"address"}],"outputs":[{"name":"","type":"bool","internalType":"bool"}],"stateMutability":"view"},{"type":"function","name":"closedMouthBaseURI","inputs":[],"outputs":[{"name":"","type":"string","internalType":"string"}],"stateMutability":"view"},{"type":"function","name":"getApproved","inputs":[{"name":"tokenId","type":"uint256","internalType":"uint256"}],"outputs":[{"name":"","type":"address","internalType":"address"}],"stateMutability":"view"},{"type":"function","name":"getPlayerStatus","inputs":[{"name":"player","type":"address","internalType":"address"}],"outputs":[{"name":"paid","type":"bool","internalType":"bool"},{"name":"highestScore","type":"uint256","internalType":"uint256"},{"name":"mintedClosed","type":"bool","internalType":"bool"},{"name":"mintedOpen","type":"bool","internalType":"bool"},{"name":"canMintClosed","type":"bool","internalType":"bool"},{"name":"canMintOpen","type":"bool","internalType":"bool"}],"stateMutability":"view"},{"type":"function","name":"hasMintedNFT","inputs":[{"name":"","type":"address","internalType":"address"},{"name":"","type":"uint8","internalType":"enum MouthGameNFT.NFTType"}],"outputs":[{"name":"","type":"bool","internalType":"bool"}],"stateMutability":"view"},{"type":"function","name":"hasPaidToPlay","inputs":[{"name":"","type":"address","internalType":"address"}],"outputs":[{"name":"","type":"bool","internalType":"bool"}],"stateMutability":"view"},{"type":"function","name":"initialize","inputs":[{"name":"_name","type":"string","internalType":"string"},{"name":"_symbol","type":"string","internalType":"string"},{"name":"_closedMouthBaseURI","type":"string","internalType":"string"},{"name":"_openMouthBaseURI","type":"string","internalType":"string"}],"outputs":[],"stateMutability":"nonpayable"},{"type":"function","name":"isApprovedForAll","inputs":[{"name":"owner","type":"address","internalType":"address"},{"name":"operator","type":"address","internalType":"address"}],"outputs":[{"name":"","type":"bool","internalType":"bool"}],"stateMutability":"view"},{"type":"function","name":"mintClosedMouthNFT","inputs":[],"outputs":[],"stateMutability":"nonpayable"},{"type":"function","name":"mintOpenMouthNFT","inputs":[],"outputs":[],"stateMutability":"nonpayable"},{"type":"function","name":"name","inputs":[],"outputs":[{"name":"","type":"string","internalType":"string"}],"stateMutability":"view"},{"type":"function","name":"openMouthBaseURI","inputs":[],"outputs":[{"name":"","type":"string","internalType":"string"}],"stateMutability":"view"},{"type":"function","name":"owner","inputs":[],"outputs":[{"name":"","type":"address","internalType":"address"}],"stateMutability":"view"},{"type":"function","name":"ownerOf","inputs":[{"name":"tokenId","type":"uint256","internalType":"uint256"}],"outputs":[{"name":"","type":"address","internalType":"address"}],"stateMutability":"view"},{"type":"function","name":"pause","inputs":[],"outputs":[],"stateMutability":"nonpayable"},{"type":"function","name":"paused","inputs":[],"outputs":[{"name":"","type":"bool","internalType":"bool"}],"stateMutability":"view"},{"type":"function","name":"payToPlay","inputs":[],"outputs":[],"stateMutability":"payable"},{"type":"function","name":"playerHighestScores","inputs":[{"name":"","type":"address","internalType":"address"}],"outputs":[{"name":"","type":"uint256","internalType":"uint256"}],"stateMutability":"view"},{"type":"function","name":"proxiableUUID","inputs":[],"outputs":[{"name":"","type":"bytes32","internalType":"bytes32"}],"stateMutability":"view"},{"type":"function","name":"recordScore","inputs":[{"name":"player","type":"address","internalType":"address"},{"name":"score","type":"uint256","internalType":"uint256"}],"outputs":[],"stateMutability":"nonpayable"},{"type":"function","name":"renounceOwnership","inputs":[],"outputs":[],"stateMutability":"nonpayable"},{"type":"function","name":"resetPlayerPayment","inputs":[{"name":"player","type":"address","internalType":"address"}],"outputs":[],"stateMutability":"nonpayable"},{"type":"function","name":"safeTransferFrom","inputs":[{"name":"from","type":"address","internalType":"address"},{"name":"to","type":"address","internalType":"address"},{"name":"tokenId","type":"uint256","internalType":"uint256"}],"outputs":[],"stateMutability":"nonpayable"},{"type":"function","name":"safeTransferFrom","inputs":[{"name":"from","type":"address","internalType":"address"},{"name":"to","type":"address","internalType":"address"},{"name":"tokenId","type":"uint256","internalType":"uint256"},{"name":"data","type":"bytes","internalType":"bytes"}],"outputs":[],"stateMutability":"nonpayable"},{"type":"function","name":"setApprovalForAll","inputs":[{"name":"operator","type":"address","internalType":"address"},{"name":"approved","type":"bool","internalType":"bool"}],"outputs":[],"stateMutability":"nonpayable"},{"type":"function","name":"supportsInterface","inputs":[{"name":"interfaceId","type":"bytes4","internalType":"bytes4"}],"outputs":[{"name":"","type":"bool","internalType":"bool"}],"stateMutability":"view"},{"type":"function","name":"symbol","inputs":[],"outputs":[{"name":"","type":"string","internalType":"string"}],"stateMutability":"view"},{"type":"function","name":"tokenByIndex","inputs":[{"name":"index","type":"uint256","internalType":"uint256"}],"outputs":[{"name":"","type":"uint256","internalType":"uint256"}],"stateMutability":"view"},{"type":"function","name":"tokenNFTType","inputs":[{"name":"","type":"uint256","internalType":"uint256"}],"outputs":[{"name":"","type":"uint8","internalType":"enum MouthGameNFT.NFTType"}],"stateMutability":"view"},{"type":"function","name":"tokenOfOwnerByIndex","inputs":[{"name":"owner","type":"address","internalType":"address"},{"name":"index","type":"uint256","internalType":"uint256"}],"outputs":[{"name":"","type":"uint256","internalType":"uint256"}],"stateMutability":"view"},{"type":"function","name":"tokenURI","inputs":[{"name":"tokenId","type":"uint256","internalType":"uint256"}],"outputs":[{"name":"","type":"string","internalType":"string"}],"stateMutability":"view"},{"type":"function","name":"totalSupply","inputs":[],"outputs":[{"name":"","type":"uint256","internalType":"uint256"}],"stateMutability":"view"},{"type":"function","name":"transferFrom","inputs":[{"name":"from","type":"address","internalType":"address"},{"name":"to","type":"address","internalType":"address"},{"name":"tokenId","type":"uint256","internalType":"uint256"}],"outputs":[],"stateMutability":"nonpayable"},{"type":"function","name":"transferOwnership","inputs":[{"name":"newOwner","type":"address","internalType":"address"}],"outputs":[],"stateMutability":"nonpayable"},{"type":"function","name":"unpause","inputs":[],"outputs":[],"stateMutability":"nonpayable"},{"type":"function","name":"updateBaseURI","inputs":[{"name":"nftType","type":"uint8","internalType":"enum MouthGameNFT.NFTType"},{"name":"newBaseURI","type":"string","internalType":"string"}],"outputs":[],"stateMutability":"nonpayable"},{"type":"function","name":"upgradeToAndCall","inputs":[{"name":"newImplementation","type":"address","internalType":"address"},{"name":"data","type":"bytes","internalType":"bytes"}],"outputs":[],"stateMutability":"payable"},{"type":"function","name":"withdrawFunds","inputs":[],"outputs":[],"stateMutability":"nonpayable"},{"type":"event","name":"Approval","inputs":[{"name":"owner","type":"address","indexed":true,"internalType":"address"},{"name":"approved","type":"address","indexed":true,"internalType":"address"},{"name":"tokenId","type":"uint256","indexed":true,"internalType":"uint256"}],"anonymous":false},{"type":"event","name":"ApprovalForAll","inputs":[{"name":"owner","type":"address","indexed":true,"internalType":"address"},{"name":"operator","type":"address","indexed":true,"internalType":"address"},{"name":"approved","type":"bool","indexed":false,"internalType":"bool"}],"anonymous":false},{"type":"event","name":"BaseURIUpdated","inputs":[{"name":"nftType","type":"uint8","indexed":false,"internalType":"enum MouthGameNFT.NFTType"},{"name":"newBaseURI","type":"string","indexed":false,"internalType":"string"}],"anonymous":false},{"type":"event","name":"BatchMetadataUpdate","inputs":[{"name":"_fromTokenId","type":"uint256","indexed":false,"internalType":"uint256"},{"name":"_toTokenId","type":"uint256","indexed":false,"internalType":"uint256"}],"anonymous":false},{"type":"event","name":"FundsWithdrawn","inputs":[{"name":"owner","type":"address","indexed":true,"internalType":"address"},{"name":"amount","type":"uint256","indexed":false,"internalType":"uint256"}],"anonymous":false},{"type":"event","name":"GameEntryPaid","inputs":[{"name":"player","type":"address","indexed":true,"internalType":"address"},{"name":"amount","type":"uint256","indexed":false,"internalType":"uint256"}],"anonymous":false},{"type":"event","name":"Initialized","inputs":[{"name":"version","type":"uint64","indexed":false,"internalType":"uint64"}],"anonymous":false},{"type":"event","name":"MetadataUpdate","inputs":[{"name":"_tokenId","type":"uint256","indexed":false,"internalType":"uint256"}],"anonymous":false},{"type":"event","name":"NFTMinted","inputs":[{"name":"player","type":"address","indexed":true,"internalType":"address"},{"name":"tokenId","type":"uint256","indexed":false,"internalType":"uint256"},{"name":"nftType","type":"uint8","indexed":false,"internalType":"enum MouthGameNFT.NFTType"},{"name":"score","type":"uint256","indexed":false,"internalType":"uint256"}],"anonymous":false},{"type":"event","name":"OwnershipTransferred","inputs":[{"name":"previousOwner","type":"address","indexed":true,"internalType":"address"},{"name":"newOwner","type":"address","indexed":true,"internalType":"address"}],"anonymous":false},{"type":"event","name":"Paused","inputs":[{"name":"account","type":"address","indexed":false,"internalType":"address"}],"anonymous":false},{"type":"event","name":"ScoreRecorded","inputs":[{"name":"player","type":"address","indexed":true,"internalType":"address"},{"name":"score","type":"uint256","indexed":false,"internalType":"uint256"}],"anonymous":false},{"type":"event","name":"Transfer","inputs":[{"name":"from","type":"address","indexed":true,"internalType":"address"},{"name":"to","type":"address","indexed":true,"internalType":"address"},{"name":"tokenId","type":"uint256","indexed":true,"internalType":"uint256"}],"anonymous":false},{"type":"event","name":"Unpaused","inputs":[{"name":"account","type":"address","indexed":false,"internalType":"address"}],"anonymous":false},{"type":"event","name":"Upgraded","inputs":[{"name":"implementation","type":"address","indexed":true,"internalType":"address"}],"anonymous":false},{"type":"error","name":"AddressEmptyCode","inputs":[{"name":"target","type":"address","internalType":"address"}]},{"type":"error","name":"ERC1967InvalidImplementation","inputs":[{"name":"implementation","type":"address","internalType":"address"}]},{"type":"error","name":"ERC1967NonPayable","inputs":[]},{"type":"error","name":"ERC721EnumerableForbiddenBatchMint","inputs":[]},{"type":"error","name":"ERC721IncorrectOwner","inputs":[{"name":"sender","type":"address","internalType":"address"},{"name":"tokenId","type":"uint256","internalType":"uint256"},{"name":"owner","type":"address","internalType":"address"}]},{"type":"error","name":"ERC721InsufficientApproval","inputs":[{"name":"operator","type":"address","internalType":"address"},{"name":"tokenId","type":"uint256","internalType":"uint256"}]},{"type":"error","name":"ERC721InvalidApprover","inputs":[{"name":"approver","type":"address","internalType":"address"}]},{"type":"error","name":"ERC721InvalidOperator","inputs":[{"name":"operator","type":"address","internalType":"address"}]},{"type":"error","name":"ERC721InvalidOwner","inputs":[{"name":"owner","type":"address","internalType":"address"}]},{"type":"error","name":"ERC721InvalidReceiver","inputs":[{"name":"receiver","type":"address","internalType":"address"}]},{"type":"error","name":"ERC721InvalidSender","inputs":[{"name":"sender","type":"address","internalType":"address"}]},{"type":"error","name":"ERC721NonexistentToken","inputs":[{"name":"tokenId","type":"uint256","internalType":"uint256"}]},{"type":"error","name":"ERC721OutOfBoundsIndex","inputs":[{"name":"owner","type":"address","internalType":"address"},{"name":"index","type":"uint256","internalType":"uint256"}]},{"type":"error","name":"EnforcedPause","inputs":[]},{"type":"error","name":"ExpectedPause","inputs":[]},{"type":"error","name":"FailedCall","inputs":[]},{"type":"error","name":"InvalidInitialization","inputs":[]},{"type":"error","name":"NotInitializing","inputs":[]},{"type":"error","name":"OwnableInvalidOwner","inputs":[{"name":"owner","type":"address","internalType":"address"}]},{"type":"error","name":"OwnableUnauthorizedAccount","inputs":[{"name":"account","type":"address","internalType":"address"}]},{"type":"error","name":"ReentrancyGuardReentrantCall","inputs":[]},{"type":"error","name":"UUPSUnauthorizedCallContext","inputs":[]},{"type":"error","name":"UUPSUnsupportedProxiableUUID","inputs":[{"name":"slot","type":"bytes32","internalType":"bytes32"}]}],"bytecode":{"object":"0x60a060405230608052348015610013575f5ffd5b5061001c610021565b6100d3565b7ff0c57e16840df040f15088dc2f81fe391c3923bec73e23a9662efc9c229c6a00805468010000000000000000900460ff16156100715760405163f92ee8a960e01b815260040160405180910390fd5b80546001600160401b03908116146100d05780546001600160401b0319166001600160401b0390811782556040519081527fc7f505b2f371ae2175ee4913f4499e1f2633a7b5936321eed1cdaeb6115181d29060200160405180910390a15b50565b6080516135986100f95f395f8181611bb201528181611bdb0152611d1a01526135985ff3fe60806040526004361061026a575f3560e01c8063623200031161014a578063a523d35e116100be578063cc1ba2d611610078578063cc1ba2d614610749578063e8ccf34914610784578063e985e9c514610798578063ef3dabc1146107b7578063f2fde38b146107cb578063fbd53482146107ea575f5ffd5b8063a523d35e14610689578063ad3cb1cc146106a8578063b39bfc65146106d8578063b88d4fde146106f7578063c7ffadb614610716578063c87b56dd1461072a575f5ffd5b80638456cb591161010f5780638456cb59146105ec578063890ce3cf146106005780638da5cb5b1461061457806395d89b41146106285780639f3b60631461063c578063a22cb4651461066a575f5ffd5b806362320003146105675780636352211e1461057b57806370a082311461059a578063715018a6146105b9578063795302d3146105cd575f5ffd5b80633e5edbd3116101e15780634f1ef286116101a65780634f1ef286146104b15780634f6ccce7146104c457806352d1902d146104e357806355a8e55d146104f75780635c975abb1461050b5780635eb712c21461052e575f5ffd5b80633e5edbd31461042c5780633f4ba83a1461043457806342842e0e14610448578063432fb34d146104675780634d08a66714610486575f5ffd5b8063109921b111610232578063109921b11461037357806318160ddd1461039b57806323b872dd146103bb57806324600fc3146103da5780632f745c59146103ee5780633d8db18d1461040d575f5ffd5b806301ffc9a71461026e57806306fdde03146102a2578063081812fc146102c3578063095ea7b3146102fa5780630f45db911461031b575b5f5ffd5b348015610279575f5ffd5b5061028d610288366004612d9e565b610809565b60405190151581526020015b60405180910390f35b3480156102ad575f5ffd5b506102b6610819565b6040516102999190612de7565b3480156102ce575f5ffd5b506102e26102dd366004612df9565b6108ba565b6040516001600160a01b039091168152602001610299565b348015610305575f5ffd5b50610319610314366004612e2b565b6108ce565b005b348015610326575f5ffd5b5061033a610335366004612e53565b6108dd565b604080519615158752602087019590955292151593850193909352151560608401529015156080830152151560a082015260c001610299565b34801561037e575f5ffd5b5061038d662386f26fc1000081565b604051908152602001610299565b3480156103a6575f5ffd5b505f5160206135035f395f51905f525461038d565b3480156103c6575f5ffd5b506103196103d5366004612e6c565b610964565b3480156103e5575f5ffd5b506103196109f2565b3480156103f9575f5ffd5b5061038d610408366004612e2b565b610b65565b348015610418575f5ffd5b5061028d610427366004612e53565b610bd6565b610319610c62565b34801561043f575f5ffd5b50610319610daa565b348015610453575f5ffd5b50610319610462366004612e6c565b610dba565b348015610472575f5ffd5b50610319610481366004612e53565b610dd9565b348015610491575f5ffd5b5061038d6104a0366004612e53565b60016020525f908152604090205481565b6103196104bf366004612f49565b610e01565b3480156104cf575f5ffd5b5061038d6104de366004612df9565b610e1c565b3480156104ee575f5ffd5b5061038d610e8e565b348015610502575f5ffd5b506102b6610ea9565b348015610516575f5ffd5b505f5160206135235f395f51905f525460ff1661028d565b348015610539575f5ffd5b5061028d610548366004612fa1565b600260209081525f928352604080842090915290825290205460ff1681565b348015610572575f5ffd5b5061038d60c881565b348015610586575f5ffd5b506102e2610595366004612df9565b610f35565b3480156105a5575f5ffd5b5061038d6105b4366004612e53565b610f3f565b3480156105c4575f5ffd5b50610319610f97565b3480156105d8575f5ffd5b506103196105e7366004612fd2565b610fa8565b3480156105f7575f5ffd5b50610319611085565b34801561060b575f5ffd5b50610319611095565b34801561061f575f5ffd5b506102e2611284565b348015610633575f5ffd5b506102b66112b2565b348015610647575f5ffd5b5061028d610656366004612e53565b5f6020819052908152604090205460ff1681565b348015610675575f5ffd5b50610319610684366004612fec565b6112f0565b348015610694575f5ffd5b506103196106a3366004613025565b6112fb565b3480156106b3575f5ffd5b506102b6604051806040016040528060058152602001640352e302e360dc1b81525081565b3480156106e3575f5ffd5b5061028d6106f2366004612e53565b611446565b348015610702575f5ffd5b506103196107113660046130da565b6114ac565b348015610721575f5ffd5b506102b66114c4565b348015610735575f5ffd5b506102b6610744366004612df9565b6114d1565b348015610754575f5ffd5b50610777610763366004612df9565b60066020525f908152604090205460ff1681565b6040516102999190613159565b34801561078f575f5ffd5b5061038d609681565b3480156107a3575f5ffd5b5061028d6107b2366004613167565b61168a565b3480156107c2575f5ffd5b506103196116d6565b3480156107d6575f5ffd5b506103196107e5366004612e53565b6118b0565b3480156107f5575f5ffd5b50610319610804366004612e2b565b6118ed565b5f610813826119e5565b92915050565b5f5160206134c35f395f51905f5280546060919081906108389061318f565b80601f01602080910402602001604051908101604052809291908181526020018280546108649061318f565b80156108af5780601f10610886576101008083540402835291602001916108af565b820191905f5260205f20905b81548152906001019060200180831161089257829003601f168201915b505050505091505090565b5f6108c482611a09565b5061081382611a40565b6108d9828233611a79565b5050565b6001600160a01b0381165f9081526020818152604080832054600180845282852054600280865284872092875291909452828520549085529184205460ff918216949282169291169080858015610935575060968510155b801561093f575083155b915085801561094f575060c88510155b8015610959575082155b905091939550919395565b6001600160a01b03821661099257604051633250574960e11b81525f60048201526024015b60405180910390fd5b5f61099e838333611a86565b9050836001600160a01b0316816001600160a01b0316146109ec576040516364283d7b60e01b81526001600160a01b0380861660048301526024820184905282166044820152606401610989565b50505050565b6109fa611a9c565b610a02611ace565b4780610a5b5760405162461bcd60e51b815260206004820152602260248201527f4d6f75746847616d654e46543a204e6f2066756e647320746f20776974686472604482015261617760f01b6064820152608401610989565b5f610a64611284565b6001600160a01b0316826040515f6040518083038185875af1925050503d805f8114610aab576040519150601f19603f3d011682016040523d82523d5f602084013e610ab0565b606091505b5050905080610b015760405162461bcd60e51b815260206004820152601f60248201527f4d6f75746847616d654e46543a205769746864726177616c206661696c6564006044820152606401610989565b610b09611284565b6001600160a01b03167feaff4b37086828766ad3268786972c0cd24259d4c87a80f9d3963a3c3d999b0d83604051610b4391815260200190565b60405180910390a25050610b6360015f5160206135435f395f51905f5255565b565b5f5f5160206134a35f395f51905f52610b7d84610f3f565b8310610bae5760405163295f44f760e21b81526001600160a01b038516600482015260248101849052604401610989565b6001600160a01b0384165f908152602091825260408082208583529092522054905092915050565b6001600160a01b0381165f9081526020819052604081205460ff168015610c1557506001600160a01b0382165f90815260016020526040902054609611155b801561081357506001600160a01b0382165f9081526002602052604081209060015b6002811115610c4857610c48613125565b815260208101919091526040015f205460ff161592915050565b610c6a611b18565b610c72611ace565b662386f26fc100003414610cd75760405162461bcd60e51b815260206004820152602660248201527f4d6f75746847616d654e46543a20496e636f7272656374207061796d656e7420604482015265185b5bdd5b9d60d21b6064820152608401610989565b335f9081526020819052604090205460ff1615610d415760405162461bcd60e51b815260206004820152602260248201527f4d6f75746847616d654e46543a20416c7265616479207061696420746f20706c604482015261617960f01b6064820152608401610989565b335f8181526020819052604090819020805460ff19166001179055517fb6e665c3a05f75ce4667ecf168fc40fcee6fb088f871063a94b2e0880b1c556890610d8c9034815260200190565b60405180910390a2610b6360015f5160206135435f395f51905f5255565b610db2611a9c565b610b63611b48565b610dd483838360405180602001604052805f8152506114ac565b505050565b610de1611a9c565b6001600160a01b03165f908152602081905260409020805460ff19169055565b610e09611ba7565b610e1282611c4b565b6108d98282611c53565b5f5f5160206134a35f395f51905f52610e405f5160206135035f395f51905f525490565b8310610e685760405163295f44f760e21b81525f600482015260248101849052604401610989565b806002018381548110610e7d57610e7d6131c7565b905f5260205f200154915050919050565b5f610e97611d0f565b505f5160206134e35f395f51905f5290565b60048054610eb69061318f565b80601f0160208091040260200160405190810160405280929190818152602001828054610ee29061318f565b8015610f2d5780601f10610f0457610100808354040283529160200191610f2d565b820191905f5260205f20905b815481529060010190602001808311610f1057829003601f168201915b505050505081565b5f61081382611a09565b5f5f5160206134c35f395f51905f526001600160a01b038316610f77576040516322718ad960e21b81525f6004820152602401610989565b6001600160a01b039092165f908152600390920160205250604090205490565b610f9f611a9c565b610b635f611d58565b610fb0611a9c565b6001826002811115610fc457610fc4613125565b03610fdb576004610fd5828261321f565b50611048565b6002826002811115610fef57610fef613125565b03611000576005610fd5828261321f565b60405162461bcd60e51b815260206004820152601e60248201527f4d6f75746847616d654e46543a20496e76616c6964204e4654207479706500006044820152606401610989565b7f6b2f2af56f5278465249175a3f38d73d4ec9f2e82a78075366f133a320794b9e82826040516110799291906132d9565b60405180910390a15050565b61108d611a9c565b610b63611dc8565b61109d611b18565b6110a5611ace565b335f9081526020819052604090205460ff166110d35760405162461bcd60e51b8152600401610989906132f8565b335f9081526001602052604090205460c811156111495760405162461bcd60e51b815260206004820152602e60248201527f4d6f75746847616d654e46543a2053636f726520746f6f206c6f7720666f722060448201526d1bdc195b881b5bdd5d1a0813919560921b6064820152608401610989565b335f90815260026020818152604080842092845291905290205460ff16156111c75760405162461bcd60e51b815260206004820152602b60248201527f4d6f75746847616d654e46543a204f70656e206d6f757468204e465420616c7260448201526a1958591e481b5a5b9d195960aa1b6064820152608401610989565b600380545f91826111d783613350565b90915550335f8181526002602081815260408084208385528252808420805460ff19908116600117909155868552600690925290922080549092161790559091506112229082611e10565b335f81815260016020526040908190205490517f3cbfb57d864ce4a902d50b78adfea62e75f66126f04179416187dbed79840d9791611265918591600291613368565b60405180910390a250610b6360015f5160206135435f395f51905f5255565b7f9016d09d72d40fdae2fd8ceac6b6234c7706214fd39c1cd1e609a0528c199300546001600160a01b031690565b7f80bb2b638cc20bc4d0a60d66940f3ab4a00c1d7b313497ca82fb0b4ab007930180546060915f5160206134c35f395f51905f52916108389061318f565b6108d9338383611e29565b5f611304611ed8565b805490915060ff600160401b82041615906001600160401b03165f8115801561132a5750825b90505f826001600160401b031660011480156113455750303b155b905081158015611353575080155b156113715760405163f92ee8a960e01b815260040160405180910390fd5b845467ffffffffffffffff19166001178555831561139b57845460ff60401b1916600160401b1785555b6113a58989611f00565b6113ad611f12565b6113b5611f12565b6113be33611f1a565b6113c6611f12565b6113ce611f2b565b6113d6611f12565b60046113e2888261321f565b5060056113ef878261321f565b506001600355831561143b57845460ff60401b19168555604051600181527fc7f505b2f371ae2175ee4913f4499e1f2633a7b5936321eed1cdaeb6115181d29060200160405180910390a15b505050505050505050565b6001600160a01b0381165f9081526020819052604081205460ff16801561148557506001600160a01b0382165f9081526001602052604090205460c811155b801561081357506001600160a01b0382165f90815260026020819052604082209190610c37565b6114b7848484610964565b6109ec3385858585611f3b565b60058054610eb69061318f565b60605f6114dd83612063565b6001600160a01b0316036115495760405162461bcd60e51b815260206004820152602d60248201527f4d6f75746847616d654e46543a2055524920717565727920666f72206e6f6e6560448201526c3c34b9ba32b73a103a37b5b2b760991b6064820152608401610989565b5f8281526006602052604090205460ff166060600182600281111561157057611570613125565b0361160557600480546115829061318f565b80601f01602080910402602001604051908101604052809291908181526020018280546115ae9061318f565b80156115f95780601f106115d0576101008083540402835291602001916115f9565b820191905f5260205f20905b8154815290600101906020018083116115dc57829003601f168201915b5050505050905061163c565b600282600281111561161957611619613125565b0361162b57600580546115829061318f565b6116348461209c565b949350505050565b5f8151116116585760405180602001604052805f815250611634565b80611662856121cb565b6040516020016116739291906133a1565b604051602081830303815290604052949350505050565b6001600160a01b039182165f9081527f80bb2b638cc20bc4d0a60d66940f3ab4a00c1d7b313497ca82fb0b4ab00793056020908152604080832093909416825291909152205460ff1690565b6116de611b18565b6116e6611ace565b335f9081526020819052604090205460ff166117145760405162461bcd60e51b8152600401610989906132f8565b335f908152600160205260409020546096111561178c5760405162461bcd60e51b815260206004820152603060248201527f4d6f75746847616d654e46543a2053636f726520746f6f206c6f7720666f722060448201526f18db1bdcd959081b5bdd5d1a0813919560821b6064820152608401610989565b335f9081526002602090815260408083206001845290915290205460ff161561180d5760405162461bcd60e51b815260206004820152602d60248201527f4d6f75746847616d654e46543a20436c6f736564206d6f757468204e4654206160448201526c1b1c9958591e481b5a5b9d1959609a1b6064820152608401610989565b600380545f918261181d83613350565b90915550335f8181526002602090815260408083206001808552908352818420805460ff199081168317909155868552600690935292208054909116909117905590915061186b9082611e10565b335f818152600160208190526040918290205491517f3cbfb57d864ce4a902d50b78adfea62e75f66126f04179416187dbed79840d9792611265928692909190613368565b6118b8611a9c565b6001600160a01b0381166118e157604051631e4fbdf760e01b81525f6004820152602401610989565b6118ea81611d58565b50565b6118f5611a9c565b6001600160a01b0382165f9081526020819052604090205460ff1661196e5760405162461bcd60e51b815260206004820152602960248201527f4d6f75746847616d654e46543a20506c6179657220686173206e6f74207061696044820152686420746f20706c617960b81b6064820152608401610989565b6001600160a01b0382165f908152600160205260409020548111156108d9576001600160a01b0382165f8181526001602052604090819020839055517f49a4a744d867bf4e869d90a3f297ed819fbcf090c50c918f739c482556255594906119d99084815260200190565b60405180910390a25050565b5f6001600160e01b03198216632483248360e11b14806108135750610813826122c7565b5f5f611a1483612063565b90506001600160a01b03811661081357604051637e27328960e01b815260048101849052602401610989565b5f9081527f80bb2b638cc20bc4d0a60d66940f3ab4a00c1d7b313497ca82fb0b4ab007930460205260409020546001600160a01b031690565b610dd483838360016122eb565b5f611a928484846123fe565b90505b9392505050565b33611aa5611284565b6001600160a01b031614610b635760405163118cdaa760e01b8152336004820152602401610989565b5f5160206135435f395f51905f52805460011901611aff57604051633ee5aeb560e01b815260040160405180910390fd5b60029055565b60015f5160206135435f395f51905f5255565b5f5160206135235f395f51905f525460ff1615610b635760405163d93c066560e01b815260040160405180910390fd5b611b506124f4565b5f5160206135235f395f51905f52805460ff191681557f5db9ee0a495bf2e6ff9c91a7834c1ba4fdd244a5e8aa4e537bd38aeae4b073aa335b6040516001600160a01b03909116815260200160405180910390a150565b306001600160a01b037f0000000000000000000000000000000000000000000000000000000000000000161480611c2d57507f00000000000000000000000000000000000000000000000000000000000000006001600160a01b0316611c215f5160206134e35f395f51905f52546001600160a01b031690565b6001600160a01b031614155b15610b635760405163703e46dd60e11b815260040160405180910390fd5b6118ea611a9c565b816001600160a01b03166352d1902d6040518163ffffffff1660e01b8152600401602060405180830381865afa925050508015611cad575060408051601f3d908101601f19168201909252611caa918101906133b5565b60015b611cd557604051634c9c8ce360e01b81526001600160a01b0383166004820152602401610989565b5f5160206134e35f395f51905f528114611d0557604051632a87526960e21b815260048101829052602401610989565b610dd48383612523565b306001600160a01b037f00000000000000000000000000000000000000000000000000000000000000001614610b635760405163703e46dd60e11b815260040160405180910390fd5b7f9016d09d72d40fdae2fd8ceac6b6234c7706214fd39c1cd1e609a0528c19930080546001600160a01b031981166001600160a01b03848116918217845560405192169182907f8be0079c531659141344cd1fd0a4f28419497f9722a3daafe3b4186f6b6457e0905f90a3505050565b611dd0611b18565b5f5160206135235f395f51905f52805460ff191660011781557f62e78cea01bee320cd4e420270b5ea74000d11b0c9f74754ebdbfc544b05a25833611b89565b6108d9828260405180602001604052805f815250612578565b5f5160206134c35f395f51905f526001600160a01b038316611e6957604051630b61174360e31b81526001600160a01b0384166004820152602401610989565b6001600160a01b038481165f818152600584016020908152604080832094881680845294825291829020805460ff191687151590811790915591519182527f17307eab39ab6107e8899845ad3d59bd9653f200f220920489ca2b5937696c31910160405180910390a350505050565b5f807ff0c57e16840df040f15088dc2f81fe391c3923bec73e23a9662efc9c229c6a00610813565b611f0861258f565b6108d982826125b4565b610b6361258f565b611f2261258f565b6118ea816125e4565b611f3361258f565b610b636125ec565b6001600160a01b0383163b1561205c57604051630a85bd0160e11b81526001600160a01b0384169063150b7a0290611f7d9088908890879087906004016133cc565b6020604051808303815f875af1925050508015611fb7575060408051601f3d908101601f19168201909252611fb491810190613408565b60015b61201e573d808015611fe4576040519150601f19603f3d011682016040523d82523d5f602084013e611fe9565b606091505b5080515f0361201657604051633250574960e11b81526001600160a01b0385166004820152602401610989565b805181602001fd5b6001600160e01b03198116630a85bd0160e11b1461205a57604051633250574960e11b81526001600160a01b0385166004820152602401610989565b505b5050505050565b5f9081527f80bb2b638cc20bc4d0a60d66940f3ab4a00c1d7b313497ca82fb0b4ab007930260205260409020546001600160a01b031690565b60607f0542a41881ee128a365a727b282c86fa859579490b9bb45aab8503648c8e79006120c883611a09565b505f83815260208290526040812080546120e19061318f565b80601f016020809104026020016040519081016040528092919081815260200182805461210d9061318f565b80156121585780601f1061212f57610100808354040283529160200191612158565b820191905f5260205f20905b81548152906001019060200180831161213b57829003601f168201915b505050505090505f61217460408051602081019091525f815290565b905080515f0361218657509392505050565b8151156121b95780826040516020016121a09291906133a1565b6040516020818303038152906040529350505050919050565b6121c2856125f4565b95945050505050565b6060815f036121f15750506040805180820190915260018152600360fc1b602082015290565b815f5b811561221a578061220481613350565b91506122139050600a83613437565b91506121f4565b5f816001600160401b0381111561223357612233612ea6565b6040519080825280601f01601f19166020018201604052801561225d576020820181803683370190505b5090505b84156116345761227260018361344a565b915061227f600a8661345d565b61228a906030613470565b60f81b81838151811061229f5761229f6131c7565b60200101906001600160f81b03191690815f1a9053506122c0600a86613437565b9450612261565b5f6001600160e01b0319821663780e9d6360e01b1480610813575061081382612664565b5f5160206134c35f395f51905f52818061230d57506001600160a01b03831615155b156123ce575f61231c85611a09565b90506001600160a01b038416158015906123485750836001600160a01b0316816001600160a01b031614155b801561235b5750612359818561168a565b155b156123845760405163a9fbf51f60e01b81526001600160a01b0385166004820152602401610989565b82156123cc5784866001600160a01b0316826001600160a01b03167f8c5be1e5ebec7d5bd14f71427d1e84f3dd0314c0f7b2291e5b200ac8c7c3b92560405160405180910390a45b505b5f93845260040160205250506040902080546001600160a01b0319166001600160a01b0392909216919091179055565b5f5f61240b8585856126b3565b90506001600160a01b0381166124925761248d845f5160206135035f395f51905f5280545f8381527f645e039705490088daad89bae25049a34f4a9072d398537b1ab2425f24cbed0360205260408120829055600182018355919091527fa42f15e5d656f8155fd7419d740a6073999f19cd6e061449ce4a257150545bf20155565b6124b5565b846001600160a01b0316816001600160a01b0316146124b5576124b581856127b5565b6001600160a01b0385166124d1576124cc8461284c565b611a92565b846001600160a01b0316816001600160a01b031614611a9257611a928585612919565b5f5160206135235f395f51905f525460ff16610b6357604051638dfc202b60e01b815260040160405180910390fd5b61252c82612971565b6040516001600160a01b038316907fbc7cd75a20ee27fd9adebab32041f755214dbc6bffa90cc0225b39da2e5c2d3b905f90a280511561257057610dd482826129d4565b6108d9612a3d565b6125828383612a5c565b610dd4335f858585611f3b565b612597612abd565b610b6357604051631afcd79f60e31b815260040160405180910390fd5b6125bc61258f565b5f5160206134c35f395f51905f52806125d5848261321f565b50600181016109ec838261321f565b6118b861258f565b611b0561258f565b60606125ff82611a09565b505f61261560408051602081019091525f815290565b90505f8151116126335760405180602001604052805f815250611a95565b8061263d84612ad6565b60405160200161264e9291906133a1565b6040516020818303038152906040529392505050565b5f6001600160e01b031982166380ac58cd60e01b148061269457506001600160e01b03198216635b5e139f60e01b145b8061081357506301ffc9a760e01b6001600160e01b0319831614610813565b5f5f5160206134c35f395f51905f52816126cc85612063565b90506001600160a01b038416156126e8576126e8818587612b65565b6001600160a01b03811615612724576127035f865f5f6122eb565b6001600160a01b0381165f908152600383016020526040902080545f190190555b6001600160a01b03861615612754576001600160a01b0386165f9081526003830160205260409020805460010190555b5f85815260028301602052604080822080546001600160a01b0319166001600160a01b038a811691821790925591518893918516917fddf252ad1be2c89b69c2b068fc378daa952ba7f163c4a11628f55a4df523b3ef91a495945050505050565b5f5160206134a35f395f51905f525f6127cd84610f3f565b5f8481526001840160209081526040808320546001600160a01b03891684529186905290912091925090818314612825575f838152602082815260408083205485845281842081905583526001870190915290208290555b5f948552600190930160209081526040808620869055928552929092528220919091555050565b5f5160206135035f395f51905f52545f5160206134a35f395f51905f52905f906128789060019061344a565b5f8481526003840160205260408120546002850180549394509092849081106128a3576128a36131c7565b905f5260205f2001549050808460020183815481106128c4576128c46131c7565b5f918252602080832090910192909255828152600386019091526040808220849055868252812055600284018054806128ff576128ff613483565b600190038181905f5260205f20015f905590555050505050565b5f5160206134a35f395f51905f525f600161293385610f3f565b61293d919061344a565b6001600160a01b039094165f9081526020838152604080832087845282528083208690559482526001909301909252502055565b806001600160a01b03163b5f036129a657604051634c9c8ce360e01b81526001600160a01b0382166004820152602401610989565b5f5160206134e35f395f51905f5280546001600160a01b0319166001600160a01b0392909216919091179055565b60605f5f846001600160a01b0316846040516129f09190613497565b5f60405180830381855af49150503d805f8114612a28576040519150601f19603f3d011682016040523d82523d5f602084013e612a2d565b606091505b50915091506121c2858383612bc9565b3415610b635760405163b398979f60e01b815260040160405180910390fd5b6001600160a01b038216612a8557604051633250574960e11b81525f6004820152602401610989565b5f612a9183835f611a86565b90506001600160a01b03811615610dd4576040516339e3563760e11b81525f6004820152602401610989565b5f612ac6611ed8565b54600160401b900460ff16919050565b60605f612ae283612c25565b60010190505f816001600160401b03811115612b0057612b00612ea6565b6040519080825280601f01601f191660200182016040528015612b2a576020820181803683370190505b5090508181016020015b5f19016f181899199a1a9b1b9c1cb0b131b232b360811b600a86061a8153600a8504945084612b3457509392505050565b612b70838383612cfc565b610dd4576001600160a01b038316612b9e57604051637e27328960e01b815260048101829052602401610989565b60405163177e802f60e01b81526001600160a01b038316600482015260248101829052604401610989565b606082612bde57612bd982612d60565b611a95565b8151158015612bf557506001600160a01b0384163b155b15612c1e57604051639996b31560e01b81526001600160a01b0385166004820152602401610989565b5080611a95565b5f8072184f03e93ff9f4daa797ed6e38ed64bf6a1f0160401b8310612c635772184f03e93ff9f4daa797ed6e38ed64bf6a1f0160401b830492506040015b6d04ee2d6d415b85acef81000000008310612c8f576d04ee2d6d415b85acef8100000000830492506020015b662386f26fc100008310612cad57662386f26fc10000830492506010015b6305f5e1008310612cc5576305f5e100830492506008015b6127108310612cd957612710830492506004015b60648310612ceb576064830492506002015b600a83106108135760010192915050565b5f6001600160a01b03831615801590611a925750826001600160a01b0316846001600160a01b03161480612d355750612d35848461168a565b80611a925750826001600160a01b0316612d4e83611a40565b6001600160a01b031614949350505050565b805115612d705780518082602001fd5b60405163d6bda27560e01b815260040160405180910390fd5b6001600160e01b0319811681146118ea575f5ffd5b5f60208284031215612dae575f5ffd5b8135611a9581612d89565b5f81518084528060208401602086015e5f602082860101526020601f19601f83011685010191505092915050565b602081525f611a956020830184612db9565b5f60208284031215612e09575f5ffd5b5035919050565b80356001600160a01b0381168114612e26575f5ffd5b919050565b5f5f60408385031215612e3c575f5ffd5b612e4583612e10565b946020939093013593505050565b5f60208284031215612e63575f5ffd5b611a9582612e10565b5f5f5f60608486031215612e7e575f5ffd5b612e8784612e10565b9250612e9560208501612e10565b929592945050506040919091013590565b634e487b7160e01b5f52604160045260245ffd5b5f82601f830112612ec9575f5ffd5b8135602083015f5f6001600160401b03841115612ee857612ee8612ea6565b50604051601f19601f85018116603f011681018181106001600160401b0382111715612f1657612f16612ea6565b604052838152905080828401871015612f2d575f5ffd5b838360208301375f602085830101528094505050505092915050565b5f5f60408385031215612f5a575f5ffd5b612f6383612e10565b915060208301356001600160401b03811115612f7d575f5ffd5b612f8985828601612eba565b9150509250929050565b803560038110612e26575f5ffd5b5f5f60408385031215612fb2575f5ffd5b612fbb83612e10565b9150612fc960208401612f93565b90509250929050565b5f5f60408385031215612fe3575f5ffd5b612f6383612f93565b5f5f60408385031215612ffd575f5ffd5b61300683612e10565b91506020830135801515811461301a575f5ffd5b809150509250929050565b5f5f5f5f60808587031215613038575f5ffd5b84356001600160401b0381111561304d575f5ffd5b61305987828801612eba565b94505060208501356001600160401b03811115613074575f5ffd5b61308087828801612eba565b93505060408501356001600160401b0381111561309b575f5ffd5b6130a787828801612eba565b92505060608501356001600160401b038111156130c2575f5ffd5b6130ce87828801612eba565b91505092959194509250565b5f5f5f5f608085870312156130ed575f5ffd5b6130f685612e10565b935061310460208601612e10565b92506040850135915060608501356001600160401b038111156130c2575f5ffd5b634e487b7160e01b5f52602160045260245ffd5b6003811061315557634e487b7160e01b5f52602160045260245ffd5b9052565b602081016108138284613139565b5f5f60408385031215613178575f5ffd5b61318183612e10565b9150612fc960208401612e10565b600181811c908216806131a357607f821691505b6020821081036131c157634e487b7160e01b5f52602260045260245ffd5b50919050565b634e487b7160e01b5f52603260045260245ffd5b601f821115610dd457805f5260205f20601f840160051c810160208510156132005750805b601f840160051c820191505b8181101561205c575f815560010161320c565b81516001600160401b0381111561323857613238612ea6565b61324c81613246845461318f565b846131db565b6020601f82116001811461327e575f83156132675750848201515b5f19600385901b1c1916600184901b17845561205c565b5f84815260208120601f198516915b828110156132ad578785015182556020948501946001909201910161328d565b50848210156132ca57868401515f19600387901b60f8161c191681555b50505050600190811b01905550565b6132e38184613139565b604060208201525f611a926040830184612db9565b60208082526024908201527f4d6f75746847616d654e46543a204d7573742070617920746f20706c617920666040820152631a5c9cdd60e21b606082015260800190565b634e487b7160e01b5f52601160045260245ffd5b5f600182016133615761336161333c565b5060010190565b8381526060810161337c6020830185613139565b826040830152949350505050565b5f81518060208401855e5f93019283525090919050565b5f611a926133af838661338a565b8461338a565b5f602082840312156133c5575f5ffd5b5051919050565b6001600160a01b03858116825284166020820152604081018390526080606082018190525f906133fe90830184612db9565b9695505050505050565b5f60208284031215613418575f5ffd5b8151611a9581612d89565b634e487b7160e01b5f52601260045260245ffd5b5f8261344557613445613423565b500490565b818103818111156108135761081361333c565b5f8261346b5761346b613423565b500690565b808201808211156108135761081361333c565b634e487b7160e01b5f52603160045260245ffd5b5f611a95828461338a56fe645e039705490088daad89bae25049a34f4a9072d398537b1ab2425f24cbed0080bb2b638cc20bc4d0a60d66940f3ab4a00c1d7b313497ca82fb0b4ab0079300360894a13ba1a3210667c828492db98dca3e2076cc3735a920a3ca505d382bbc645e039705490088daad89bae25049a34f4a9072d398537b1ab2425f24cbed02cd5ed15c6e187e77e9aee88184c21f4f2182ab5827cb3b7e07fbedcd63f033009b779b17422d0df92223018b32b4d1fa46e071723d6817e2486d003becc55f00a26469706673582212205753a1edd8d9423432506369b7afc1bf55a8a6515bfb1c35741109a6173f6f1f64736f6c634300081c0033","linkReferences":{}},"methodIdentifiers":{"CLOSED_MOUTH_THRESHOLD()":"e8ccf349","GAME_ENTRY_FEE()":"109921b1","OPEN_MOUTH_THRESHOLD()":"62320003","UPGRADE_INTERFACE_VERSION()":"ad3cb1cc","approve(address,uint256)":"095ea7b3","balanceOf(address)":"70a08231","canMintClosedMouth(address)":"3d8db18d","canMintOpenMouth(address)":"b39bfc65","closedMouthBaseURI()":"55a8e55d","getApproved(uint256)":"081812fc","getPlayerStatus(address)":"0f45db91","hasMintedNFT(address,uint8)":"5eb712c2","hasPaidToPlay(address)":"9f3b6063","initialize(string,string,string,string)":"a523d35e","isApprovedForAll(address,address)":"e985e9c5","mintClosedMouthNFT()":"ef3dabc1","mintOpenMouthNFT()":"890ce3cf","name()":"06fdde03","openMouthBaseURI()":"c7ffadb6","owner()":"8da5cb5b","ownerOf(uint256)":"6352211e","pause()":"8456cb59","paused()":"5c975abb","payToPlay()":"3e5edbd3","playerHighestScores(address)":"4d08a667","proxiableUUID()":"52d1902d","recordScore(address,uint256)":"fbd53482","renounceOwnership()":"715018a6","resetPlayerPayment(address)":"432fb34d","safeTransferFrom(address,address,uint256)":"42842e0e","safeTransferFrom(address,address,uint256,bytes)":"b88d4fde","setApprovalForAll(address,bool)":"a22cb465","supportsInterface(bytes4)":"01ffc9a7","symbol()":"95d89b41","tokenByIndex(uint256)":"4f6ccce7","tokenNFTType(uint256)":"cc1ba2d6","tokenOfOwnerByIndex(address,uint256)":"2f745c59","tokenURI(uint256)":"c87b56dd","totalSupply()":"18160ddd","transferFrom(address,address,uint256)":"23b872dd","transferOwnership(address)":"f2fde38b","unpause()":"3f4ba83a","updateBaseURI(uint8,string)":"795302d3","upgradeToAndCall(address,bytes)":"4f1ef286","withdrawFunds()":"24600fc3"},"id":59}